:020000040002F8
:10600000905C0020C1630200C9630200CB63020000
:10601000CD630200CF630200D163020000000000E4
:10602000000000000000000000000000D363020038
:10603000D563020000000000D7630200D9630200AC
:1060400055670200DB6302003D6D0200DB63020066
:10605000DB630200DB6302008D650200DB6302008C
:10606000DB630200DB630200DB630200DB63020030
:10607000DB630200DB630200DB630200DB63020020
:10608000DB630200AD670200DB630200DB6302003A
:10609000196A0200DB6302001D6A0200DB63020072
:1060A000DB630200DB630200DB630200DB630200F0
:1060B000DB630200DB630200000000000000000060
:1060C000DB630200DB630200DB630200DB630200D0
:1060D000DB630200DB630200DB6302000000000000
:1060E00000000000000000000000000000000000B0
:1060F00000000000000000000000000000000000A0
:10610000000000000000000000000000000000008F
:10611000000000000000000000000000000000007F
:10612000000000000000000000000000000000006F
:10613000000000000000000000000000000000005F
:10614000000000000000000000000000000000004F
:10615000000000000000000000000000000000003F
:10616000000000000000000000000000000000002F
:10617000000000000000000000000000000000001F
:10618000000000000000000000000000000000000F
:1061900000000000000000000000000000000000FF
:1061A00000000000000000000000000000000000EF
:1061B00000000000000000000000000000000000DF
:1061C00000000000000000000000000000000000CF
:1061D00000000000000000000000000000000000BF
:1061E00000000000000000000000000000000000AF
:1061F000000000000000000000000000000000009F
:10620000DFF80CD000F084F900480047ED9302005D
:10621000905C002030B450E8012F93B2C48923442D
:106220008489A34228BF1B1B0489A34202BFBFF37A
:106230002F8F002007E0C3EA020340E80134002C5E
:10624000E9D14FF001000A6030BC704750E8012FDF
:10625000C2EA024240E801210029F7D1704730B478
:1062600050E8022F1FFAA2F3C488A34202BFBFF373
:106270002F8F00200DE0C48923448489A34228BFC6
:106280001B1BC2EA034340E80234002CE8D14FF064
:1062900001000A6030BC704750E8022FC2EA224277
:1062A00040E802210029F7D17047034653E8022F46
:1062B000D988B2EB324F4FF0000017BF92B241EADB
:1062C000014142EA014104E05A68B2EB324F08BF93
:1062D000012043E80212002AE8D1704730B4044696
:1062E00054E8000F0D4644E80053002BF8D1156028
:1062F00030BC704730B4044654E8000F40EA010552
:1063000044E80053002BF7D1156030BC704730B41F
:10631000044654E8000F00EA010544E80053002B4E
:10632000F7D1156030BC704730B4044654E8000F14
:1063300080EA010544E80053002BF7D1156030BC1A
:10634000704730B4044654E8000F00EB010544E800
:106350000053002BF7D1156030BC704730B40446B1
:1063600054E8000FA0EB010544E80053002BF7D1DF
:10637000156030BC704770B404464FF0000054E81C
:10638000006F0D68AE4207BF44E80023012044E8D7
:1063900000630E60002B1CBF0020F0E770BC70474C
:1063A00030B4044654E8000F88422CBF451A054615
:1063B00044E80053002BF5D1156030BC7047000055
:1063C0000648804706480047FEE7FEE7FEE7FEE78F
:1063D000FEE7FEE7FEE7FEE7FEE7FEE7216A0200D2
:1063E000016202002DE9F05F0546002092469B46BF
:1063F00088460646814640241BE0284641464746DB
:10640000224600F075F853465A46C01A914110D3FF
:1064100011461846224600F016F82D1A67EB0108BF
:106420004F4622460120002100F00DF817EB00092D
:106430004E41201EA4F10104DFDC484631462A46C5
:106440004346BDE8F09F202A04DB203A00FA02F11F
:10645000002070479140C2F1200320FA03F3194352
:10646000904070470048704720CC020040EA01038A
:106470009B0703D009E008C9121F08C0042AFAD2FA
:1064800003E011F8013B00F8013B521EF9D27047BE
:10649000D2B201E000F8012B491EFBD27047002266
:1064A000F6E710B513460A4604461946FFF7F0FF13
:1064B000204610BD421C10F8011B0029FBD1801A98
:1064C000704710B5002200E0521C835C8C5CA34234
:1064D00001D1002BF8D1D8B2E1B2401A10BD034669
:1064E00011F8012B00F8012B002AF9D1184670474A
:1064F000202A04DB203A21FA02F00021704721FA19
:1065000002F3D040C2F1200291400843194670477F
:10651000064C074D06E0E06840F0010394E80700F0
:1065200098471034AC42F6D3FFF76EFE94D30200C6
:10653000B4D3020070B58C1810F8015B15F0070396
:1065400001D110F8013B2A1106D110F8012B03E00C
:1065500010F8016B01F8016B5B1EF9D12B0705D414
:106560000023521E0DD401F8013BFAE710F8013B5D
:10657000CB1A921C03E013F8015B01F8015B521E79
:10658000F9D5A142D8D3002070BD00002DE9F04715
:1065900000268AB0DFF85091B0464FF48075012490
:1065A00037460696284603F0DDFD38B1D9F80403D6
:1065B000204203D0284603F0CBFD26432D1D640066
:1065C0007F1CADB2082FEDD34FF4BE74204603F00C
:1065D000C9FD48B1204603F0BBFD46F0004606AABF
:1065E0000121002003F0A0FD404D16F0FF0F15D053
:1065F0000127002437420DD009EB8401D1F81005A2
:10660000D1F81015C0F3042055F82420C1F301413E
:1066100002B190477F00641C082CEBD3002E5FDA98
:106620004FF0FF30CDF8108054E0281910F8507F5B
:1066300090F9000027F0C008401C3BD007A9404655
:1066400003F068F910B34FEA9719404602F036FAA2
:1066500055F820701FB1B9F1030F03D006E0B9F16E
:10666000030F27D104A9404603F05CF94FF0A04185
:1066700001EB8800D0F8000706A9C0F3014A4046A4
:1066800003F048F918B1BAF1020F03D012E0BAF1E1
:10669000030F0FD1B9F1030F08D1BAF1020F1DD0CA
:1066A0000221404603F024FD761CF6B217B149469C
:1066B0004046B847641C042CB7D3002E10D06A465D
:1066C0000121002003F030FD06990098884207D090
:1066D00006900498002634460790A6E70321E0E7D9
:1066E0000AB0BDE8F08700000060004030320020B2
:1066F00000F01F02012191404009800000F1E020DC
:10670000C0F88012704700F01F020121914040093B
:10671000800000F1E020C0F80011704700F01F0277
:10672000012191404009800000F1E020C0F80012F2
:1067300070474907090E002806DA00F00F0000F143
:10674000E02080F8141D704700F1E02080F800146C
:106750007047000070B54FF48076304603F026FA9B
:10676000114CB50560B1304603F027FA0120C5F899
:106770000803607920B901206071216800208847F2
:106780004FF48276304603F011FA00280AD03046E2
:1067900003F013FA0220C5F808032168BDE8704031
:1067A0000120084770BD0000F82A0020074800219A
:1067B000C0F84011C0F84411C0F84811C0F84C119D
:1067C000C0F80011C0F8041105F046BC00100140EB
:1067D00000F0BABAF8B50D4B0646144618780D46C7
:1067E00008B900F0B1FA00208DF80000684600F00A
:1067F000D1FE22462946304600F00AF804469DF8AC
:10680000000000F0EBFE2046F8BD0000043A002036
:1068100070B50E46144900EB400001EBC00514466C
:10682000E86A183520B101280FD0022805D113E0FD
:10683000284600F0BDFAA04201D2002411E0224611
:106840003146284600F0DAFB0BE0284600F0B0FAAB
:10685000A042F4D20446F2E73146284600F0A1FBFC
:106860000446204670BD0000043A00200FB408B56D
:1068700004A900916A46039900F003F801B05DF89D
:1068800014FB2DE9F04198B0064607A8029040207D
:106890000025CDE90305CDE9055690460C4614F8D0
:1068A000011B002973D0252908D002A800F05AFB4B
:1068B00005980028F3DA18B0BDE8F0810020012126
:1068C0002278232A1ED02B2A19D02D2A02D0302A32
:1068D00008D102E040F0010001E040F00200641C39
:1068E0000029EDD100222178A1F130030A2B0CD22E
:1068F00002EB820201EB4202303A641CF3E740F003
:106900000400ECE740F00800E9E70023CFB22E2FA7
:106910000BD114F8011FA1F130070A2F05D203EBA8
:10692000830301EB4303303BF3E76C290DD0682967
:106930000BD0702954D00BDC252916D0582931D022
:1069400063290CD0642913D114E014F8011FECE77B
:10695000732934D075291BD0782909D122E0D8F8C1
:106960000000011DC8F80010017802A800F0FAFA32
:10697000641C9DE7D8F800100F1DC8F80070096866
:10698000CDE900200A2202A800F01EFAF0E733E069
:10699000D8F800100F1DC8F800700968CDE9002074
:1069A0000A2208E0D8F800100F1DC8F80070096826
:1069B000CDE90020102202A800F06AFAD8E7D8F842
:1069C0000000011DC8F80010076817F8011B002916
:1069D000CED002A800F0C6FA05980028F5DAC7E77D
:1069E000D8F80000011DC8F8001001680820CDE9A2
:1069F000000503461022DEE7059800287FF75BAF0D
:106A0000049820B1024607A93046FFF7E3FEDDE90E
:106A10000410084405904EE705F06CBA04F006B97E
:106A2000F0B5B5480023021D0178101D01254FF077
:106A3000805406290BD11678360708D10678C6F39C
:106A40000316032E06D0042E04D0052E02D00629EC
:106A500007D00EE0B4F82463A84FC6F304263E60C6
:106A600002E01678360704D10678C6F30316032E23
:106A700002D0062904D00FE0A24FA14E7E670EE09F
:106A80001678360708D10678C6F30316032E06D00B
:106A9000042E04D0052E02D0062907D00EE0D4F82B
:106AA0004462994FC6F342363E6002E016783607DC
:106AB00004D10678C6F30316032E02D0062906D0A9
:106AC00011E0924E376827F0807737600EE0167835
:106AD000360708D10678C6F30316032E06D0042E17
:106AE00004D0052E02D006290AD011E04FF08046CE
:106AF000C6F80C31C6F81031834E361F336002E001
:106B00001678360704D10678C6F30316032E02D092
:106B1000062905D00CE07C4F032664373E600AE06E
:106B20001678360704D10678C6F30316032E02D072
:106B300006290DD014E0764F05263E60744E783657
:106B40003560734E083633603F263F1D3E6002E0DD
:106B50001678360704D10678C6F30316052E02D040
:106B6000062957D062E06B4E36686B4F3E60694E27
:106B7000361D36683F1D3E60664E083636683F1D3E
:106B80003E60644E0C3636683F1D3E60614E1036E6
:106B900036683F1D3E605F4E143636683F1D3E60CE
:106BA0005C4E183636685C4F20373E60594E1C36B6
:106BB00036683F1D3E60574E203636683F1D3E60AA
:106BC000544E243636683F1D3E60524E2836366895
:106BD0003F1D3E604F4E2C3636683F1D3E604D4E89
:106BE000303636684C4F40373E604A4E3436366851
:106BF0003F1D3E60474E383636683F1D3E60454E6D
:106C00003C3636683F1D3E60424E403636683F1D7A
:106C10003E6002E01678360708D10678C6F3031600
:106C2000032E06D0042E04D0052E02D0062907D04C
:106C300019E0D4F85812394A01F04F01116002E00E
:106C4000117809070FD10078C0F30310032803D08F
:106C5000042801D0052806D131480168C90702D0AF
:106C60006FF001010160D4F83001062808D1D4F892
:106C70003401062804D12B48016841F48061016089
:106C800022487438016841F470010160BFF34F8FEE
:106C9000BFF36F8F4FF01021D1F80002002803DB03
:106CA000D1F80402002822DA1F4A15601F48046840
:106CB000002CFCD01524C1F800420568002DFCD042
:106CC000C1F8044201680029FCD013600168002962
:106CD000FCD0BFF34F8F0D48F0380168144A01F41F
:106CE000E06111430160BFF34F8F00BFFDE7124920
:106CF00010480860F0BD0000E00F00F04035014092
:106D00000DF0ADBA00C007403C050040FCED00E0CE
:106D1000105600400404001020C50040E40E00405E
:106D2000000400403C17004004E5014000E401403D
:106D30000400FA050090D003E42B0020014800680D
:106D400000470000002B002010B5124C02202061EB
:106D5000606111A0A06104F17800E0614FF400705F
:106D600020620020A06260620BA1A164E06204F5D1
:106D70001E71E1641021A065C4E91410E06509A149
:106D8000E01DFFF7ACFB08A12046FFF7A8FB202081
:106D9000A07110BD043A00205465726D696E616C7B
:106DA000000000005254540053454747455200002C
:106DB0000269C1688A4203D88068401A104400E022
:106DC000501A401E704700002DE9FC5F0E008146FE
:106DD000DDE90C47C6F1000098469346824600D490
:106DE0000846012503E000BF90FBFBF06D1C5845F1
:106DF000FADAA84500D9454624B1002E01DB780710
:106E000000D5641EB80702D5B8F1000F0FD0F807FF
:106E10000DD164B1A5420AD220214846641E00F07B
:106E2000A1F8D9F80C000028F3DABDE8FC9FD9F8E6
:106E30000C000028F9DB002E02DA56462D2102E074
:106E4000780707D52B21484600F08CF8D9F80C00BC
:106E50000028EADB07F0030002280FD1B8F1000F89
:106E60000CD15CB1A54209D230214846641E00F025
:106E700079F8D9F80C000028F3DAD6E7CDE9004715
:106E800043465A463146484600F002F8CDE7000036
:106E90002DE9F84F8246DDE90A4B012698469146D6
:106EA0000D460846374602E0B0FBF9F07F1C484526
:106EB000FAD2B84500D947465FEACB7017D1B4B1D2
:106EC0005FEA8B7002D5B8F1000F02D0202000904D
:106ED0000BE03020FBE75046641E009900F042F8BA
:106EE000DAF80C00002838DB0CB1A742F3D3DAF84B
:106EF0000C00002831DB00BFB8F1010F02D9A8F166
:106F0000010803E0B5FBF6F0484502D306FB09F69D
:106F1000F2E7DFF84C8000BFB5FBF6F000FB16553A
:106F200018F80010504600F01DF8DAF80C000028A0
:106F300003DBB6FBF9F6002EEED15FEACB700CD086
:106F4000002C0AD0A74208D220215046641E00F02F
:106F500009F8DAF80C000028F2DABDE8F88F000032
:106F6000E6CA020010B50446D4E90130421C93423F
:106F700005D323681954A260E068401CE060D4E99E
:106F80000102824209D121682069FFF723FCA16830
:106F9000884203D04FF0FF30E06010BD0020A060B9
:106FA00010BD2DE9F047C4681746894606464FF0E4
:106FB00000083069A04201D9051B02E0B168201A1F
:106FC0000D1AB0686D1E001BA84200D80546BD42D0
:106FD00000D33D4670682A4620444946FFF746FAEA
:106FE000B0687F1B2C44A844A944A04200D10024CF
:106FF000F460002FDDD14046BDE8F0872DE9F04177
:1070000004468846D4E90207C51BE1686068164655
:107010000844B54206D94146FFF728FAB819E0609E
:10702000BDE8F0812A464146FFF720FA761B08EBBF
:10703000050132466068FFF719FAE660F0E70000E4
:10704000014A024900F031B81B8F02007C2B00205E
:1070500002E008C8121F08C1002AFAD17047704721
:10706000002001E001C1121F002AFBD1704700007F
:107070000121202803DA81400548014003E040282F
:1070800002DA2038814009B10120704700207047A2
:10709000FC06FFBD082806D228B1012803D0042829
:1070A00001D001207047002070472DE9F0411646BD
:1070B0000F460446002503E03946B047641C6D1CAA
:1070C00020780028F8D12846BDE8F08110B50122CB
:1070D0000221002001F002FB08B1072810D107228D
:1070E0000221012001F0FAFA08B1072808D1002195
:1070F0000A22084601F0F2FA08B1072800D1002060
:1071000010BD000010B5B6B0AC216846FFF7C7F956
:1071100001208DF8000006218DF801108DF8020085
:1071200005218DF803100A218DF8D41035A91DA270
:107130000191D2E90012CDE9311231AA2D92072234
:10714000ADF8B0202BAB09934FF6FF71002317A4C5
:10715000ADF8AC108DF83C30D4E90034CDE93334CF
:10716000ADF8B81033A930912EA91891ADF84C00A4
:107170008DF87C000F4940201491229044F2506019
:1071800023900D482990ADF8BC2069460B4800F0CB
:10719000DBFB08B100F0A4F80121084800F0D1FBA6
:1071A00036B010BD48454C4C4F210000574F524C53
:1071B00044210000A62A002015B60200303000202D
:1071C000022001F029B9000070B50024064D06E048
:1071D0006868012110F8340003F012FE641C28785E
:1071E0008442F5D3002070BD082B0020F8B5154669
:1071F0000C460646052A01D20720F8BD03F0FCFE26
:1072000018B903F0C1FE0028F7D1124900224E60E0
:107210000C708D60C1E90422C1E906220E4D0DE01B
:1072200006EBC4002968009181788DF80110007880
:107230000A4A694603F036FE0028DED1641EE4B235
:10724000EED2BDE8F84004480021054A001D00F0D8
:107250007BB80000082B002018C90200AD8F020087
:107260008D8D020072B603F005FA00BF03F044F8FA
:107270000028FBD1104C0121208801EB00400FA118
:1072800003F04AF910480068C00700D000BE20880B
:10729000022101EB00400DA103F03EF9BFF34F8F37
:1072A0000948E43801680D4A01F4E06111430160C6
:1072B000BFF34F8F00BFFDE7182C002046617461BB
:1072C0006C206572726F7200F0ED00E05379737498
:1072D000656D207265736574000000000400FA0596
:1072E0000EB500210091CDE901106A4644F201007B
:1072F000FFF7B8FF0EBD10B58268C368934203D094
:1073000001F0E4FD002010BD052010BD29B112B12F
:10731000531E134203D0092070470E2070470160AE
:10732000838000218160C1600846704710B5826883
:10733000C3689A1A83889A4203D801F0D1FD0020CD
:1073400010BD042010BD0000074B9B7823B12AB16B
:1073500020B10068037C1BB10820704707207047EC
:107360004174426100207047FC32002070B504F087
:107370007DFB104800240B21047044700E4D817079
:1073800014206C602C706C70FFF7B2F90721142088
:10739000FFF7CFF91420FFF7B6F90848046007217A
:1073A0001120FFF7C6F90548001F0068A8600020FB
:1073B00070BD0000FC320020282B00200815014081
:1073C0002DE9FC47DFF8789099F8023073B368B381
:1073D000052902D20720BDE8FC87436933B3437C0B
:1073E000012B25D0002704460025884616468DF837
:1073F0000050684600F0CEF801A805F0ADF9C8B11C
:10740000012101700F4944600968C0E90218C0E910
:1074100004769DF8040089F801009DF8000000F052
:10742000DDF81420FFF77AF92846D4E70820D2E7E0
:107430000F46D8E704259DF8000000F0CFF8F3E7E9
:10744000FC320020041501400649897839B130B179
:10745000416921B100210174022104F0D9BD082045
:1074600070470000FC32002070B50A4E01460A4801
:10747000B578FFF740FF04464DB10020B070711C95
:107480000122C81D02F00AFC08B1FFF729FF2046BF
:1074900070BD00003C2B002008340020F0B5244EC5
:1074A00089B01F460D00044672603FD0A888296845
:1074B00082B22048FFF72AFF002835D1A889A968A1
:1074C00082B21C481030FFF721FF00282CD1202267
:1074D00019496846FEF7CAFF60690690207C00B132
:1074E00001208DF814008DF81C70607C00B10E2016
:1074F0008DF81500E0680290A06803902068019064
:10750000606800900A480D4A6946083002F092FB14
:10751000002809D1B0702068401C05D00449012220
:10752000491CC81D02F0BAFB09B0F0BD0720FBE7FB
:107530003C2B00200834002028C90200D9C20200D8
:1075400010B501461048FFF7F1FE040019D10F48AD
:107550000F4A0178515C19B1001D03F0CFFF02E022
:107560000C3003F0B3FE60B9084907480839FFF74B
:10757000C2FE30B9054901220839044802F09EFBD9
:107580000446204610BD000018340020442B002083
:10759000EC2A002030B5EFF3108172B60D4A9468E2
:1075A000012324B10370002900D162B630BD93607D
:1075B0004FF0E023D3F88051074C25401560C3F805
:1075C0008041D3F8844154605A17C3F884210022C3
:1075D0000270E8E728340020FC06FFBD0B498A68EA
:1075E000002A11D000280FD1EFF3108072B60B687B
:1075F0004FF0E022C2F800314B68C2F8043100229B
:107600008A60002800D162B670470000283400204C
:107610002DE9F041064608680C46411C4FF0A04792
:107620004FF0010506D005FA00F1C7F808152068EB
:1076300002F04AFD6068411C02D0002102F032FDD8
:107640003168A069C1F82405607D227D316810434E
:10765000C1F86C05D4E900123068C0F81425C0F8F0
:107660000C15207D012815D1A068411C02D00021F5
:1076700002F018FDE068411C05D08540C7F80855A8
:10768000E06802F021FDD4E902123068C0F8082554
:10769000C0F81015BDE8F0812DE9F04106460868F4
:1076A0000C46411C4FF0A0474FF0010506D005FAEB
:1076B00000F1C7F80815206802F010FD6068411C51
:1076C00002D0002102F0F7FC3168A069C1F824055E
:1076D000607D217D32680843C2F86C05D4E9001250
:1076E0003068C0F80C15C0F81425207D012815D18C
:1076F000A068411C02D0002102F0DDFCE068411CC2
:1077000005D08540C7F80855E06802F0E7FCD4E9E9
:1077100002123068C0F80825C0F81015BDE8F081E5
:1077200070B51500044609D00020286034B12068E7
:1077300020B1A079800703D0072070BD0E2070BD56
:10774000084600F037FBC0B2142804D021798142EA
:1077500003D8042070BD052070BDE288216800FBBD
:1077600002102860002070BD2DE9FC470025178815
:107770000646158090F82D001446894630B13A46E9
:107780002146484600F02AFB051E09D1B0784FF08B
:107790000C0A18B32088C846001DB84202D95046CA
:1077A000BDE8FC87684679DF0028F9D120880321ED
:1077B00008F8001020881921401C80B2208008F8A9
:1077C00000102088401C80B2208000EB0801BDF82A
:1077D000000004F00FFF218808442080F078022286
:1077E000C8B1218896F9033001F1030C4846BC4525
:1077F000D5D8425421884FF0010C491C89B2218010
:1078000000F801C02188491C89B2218009F80130A3
:107810002088401C20807068B8B1218890F9003021
:1078200001F1030C4846BC45B9D8425421880A22CC
:10783000491C89B2218042542188491C89B2218087
:1078400009F801302088401C2080308950B1CDE9F2
:1078500000474B460622022106F1080004F094FF7F
:10786000051E9DD1308A50B1CDE900474B46072215
:10787000032106F1100004F087FF051E90D1308B24
:1078800050B1CDE900474B461522142106F11800EE
:1078900004F07AFF051E83D1306A30B13B462246A0
:1078A000494601F0AAF9051EDBD1706A30B13B46AA
:1078B0002246494601F0AAFE051ED2D196F82C00B8
:1078C00038B13B4622464946304604F025FA051EAB
:1078D000C7D1307838B13B4622464946304601F0A0
:1078E0001BFF051EBDD128465AE718B504460020E7
:1078F000ADF8000013466A46204600F006F800285E
:1079000002D0BDF80000204418BD70B588B182B126
:107910000024158803E0065D641C3444A4B2A5422B
:1079200003D8061976789E4201D08C42F3D38C425C
:1079300001D3002070BDA11C1180005D401E80B2EB
:1079400070BD80F8301070472DE9F0410D000446FD
:1079500006D02CB195F87A000026012803D006E065
:107960000E20BDE8F08195F89800012829D0D5F8BF
:10797000A000042825D0D5F89C00042821D04FF081
:107980000108A6702C2205F17801201DFEF76EFD7E
:1079900084F83060D5F8A4006063D5F8A800A0632F
:1079A0004FF6FF70A4F8A80004F19400C4F8A400F6
:1079B000C4F8AA60A4F8AE6084F8B060207810B172
:1079C00004E00720CDE7FF2084F8540004F15501BE
:1079D0001F27C4F89410A4F8987004F19802284660
:1079E000FFF7C2FE0028BCD115F13C0F0ED004F108
:1079F0007401C4F89C10A4F8A07004F1A00205F171
:107A00003C00FFF7B1FE0028ABD103E0C4F89C6056
:107A1000A4F8A06084F85180208BA4F8480084F872
:107A20003C80266484F8506060696064454604F1D7
:107A30003C02002104F1540072DF002891D125702E
:107A40008FE710B50288102A1BD0112A20D0262AD1
:107A50001DD1007A0C46012801D0022817D1A07848
:107A60000521401CB0FBF1F201FB1201204600F0A1
:107A700052F800280BD0A16B002908D0BDE81040B7
:107A80000847C27B012A02D18088A1F8A80010BD56
:107A90000C46002184F8B2108088B4F8A8108842FF
:107AA000F5D120790028F2D10121DFE710B50C468D
:107AB000022801D0032810D1607800280DD00020C2
:107AC0006070A178204600F026F8002805D0A16B50
:107AD000002902D0BDE81040084710BD10B504468B
:107AE00090F8540074DF012084F8B200002084F87C
:107AF000B40084F850000621204601F0FAF900286D
:107B000008D1A178204600F006F810B1A16B01B1B0
:107B10008847002010BD2DE9F05F044600780F462D
:107B200038B1A770002002F0DFF9012620B166709D
:107B300007E10820BDE8F09F0025C4F8AA50A4F88A
:107B4000AE5084F8B050A07910B1A078012806D0CA
:107B5000E07968B1A078012801D0022808D1616BD2
:107B600021B184F8B1600820884701E084F8B15061
:107B700004F1AB0100200A5C0AB1304603E0401C6E
:107B80000628F8D300204FF002084FF0030B012F16
:107B900006D0022F0CD0032F0FD0042F15D110E0E8
:107BA000A17929B194F8241011B908B130460DE03B
:107BB000E17911B108B1404608E0207A08B1584691
:107BC00004E0607A08B1042000E02846A070616BF0
:107BD00041B1032801D0042804D1607910B194F890
:107BE000B200A0B184F8B35004F13C00182107465C
:107BF000FEF755FC04F12C0084F83C60814603F04C
:107C000043FE58B194F82C0084F8510008E084F841
:107C1000B45084F8B36007208847E5E784F85160E2
:107C200094F8240050B1484603F02EFE20B194F899
:107C3000280084F8520001E084F8526084F8505023
:107C4000A27804F1AA0104F194094FF0060A052A6A
:107C500060D2DFE802F078030F223F0084F8316041
:107C6000C4F8A450C4E9101584F83C808020A4F81E
:107C7000480051E084F8318094F82420384612B14D
:107C80000722027001E080F800B0228A8281C4F8E5
:107C9000A4504160E168B9603EE06069B860208B43
:107CA000B88194F824003D4610B184F83CA001E06E
:107CB00084F83C60204604F031FD40B185F8148022
:107CC0000421204601F015F920BB05211EE084F8AF
:107CD00031B01DE0E069B860208CB88194F82400D0
:107CE0003D4610B184F83CA001E084F83C60204699
:107CF00004F014FD48B185F814800421204601F0F9
:107D0000F8F838B984F831A002E0042184F8311081
:107D1000C4F8A490A07878B13A4604F15400D4F89D
:107D2000A41072DF00287FF405AF94F8301094F8A7
:107D3000540073DF0028F6D1616B11B194F8310063
:107D400088470020F6E684F83150F5E770B5040066
:107D500012D001461C221448FEF788FB1248134D2E
:107D60000560206850B17ADF002806D120680168DC
:107D700029604068686005E00E2070BD0B487BDF1D
:107D80000028FAD108484FF6FF711438084A20F845
:107D9000041B0549343901600021FFF7D5FA00289A
:107DA000EBD0032070BD000088310020E42A0020C1
:107DB000B5C6020010B5044600F006F808B120462A
:107DC00010BD142010BD0000142801D300207047FE
:107DD0000146014801F00FBDA83100207CB50546E1
:107DE00008880C460930904201D90C207CBD6846B9
:107DF0006DDF0028FAD121880820685420881B21D3
:107E0000401C80B2208029542088401C80B22080F1
:107E10002844DDF801100160BDF80510818020883C
:107E2000801D80B220809DF80010490800D00121FB
:107E300029542088401C208000207CBDF8B5294DA5
:107E4000028804466E88212A37D011DC26484FF07C
:107E50000301102A008801EB004013D0112A25D01D
:107E6000132A29D100231A46852130467FDF17E0E7
:107E70003B2A32D0522A2AD0562A1DD1808813217B
:107E800076DF0DE019A102F047FB072000F048FC67
:107E900008B1FFF725FAA1886980174801F00EFEA6
:107EA000002809D0BDE8F840FFF71ABA13A102F084
:107EB00033FB4FF6FF706880F8BD00200090A0886B
:107EC00069468FDF0028F7D0FFF70AFAF8BD0023D4
:107ED0001A4619463046B1DFE2E78088132176DF83
:107EE000DEE70000A02A0020182C0020436F6E6EF1
:107EF0006563746564000000243000204469736386
:107F00006F6E6E65637465640000000010B51A4CF6
:107F10000188606810290ED011292BD1401E6060A5
:107F200028D1FFF7D3F8002824D02168002921D0D8
:107F3000BDE810400847D0B900210122084600F0F2
:107F4000CDFB08B107280FD107220221012000F044
:107F5000C5FB08B1072807D104220221002000F048
:107F6000BDFB20B1072802D0216801B188476068B5
:107F7000401C606010BD0000DC2A00202DE9F047A5
:107F800001883B4E40F2F3194FF6FF7510291BD0C4
:107F900011293ED0122954D0502946D1C188F289E6
:107FA000841D914241D1618902293ED186883046A3
:107FB00001F03EF8050038D004F10C0000F0E8F9BB
:107FC000A8B3294630464EE0C17B87880446012984
:107FD0002BD1A846284601F02BF8050017D02F809A
:107FE00000202872234843464A460168C5F80A1013
:107FF0004068C5F80E0004F1100105F10A0001F017
:10800000DBF86872F08900280FD129462AE00420A5
:1080100013E0808801F00CF8040006D06068FFF7D8
:1080200013FA08B103F048FE2580BDE8F087FFE7AA
:108030006868FFF709FA0028F7D0BDE8F04703F0B9
:108040003BBE87880646384600F0F2FF0400ECD0BD
:108050002B464A4606F1080104F10A0001F0ACF88B
:10806000607221463846BDE8F04700F00DBE0000C2
:1080700088310020E42A00202DE9F04F074685884A
:1080800002883D48012197B08346102A09D0112A61
:1080900049D01A2A6CD1387AB1EB101F45D201228F
:1080A00044E0354C083CA068C0430B9061680BA8C5
:1080B00001F0C2FB0B990CA800F080FD2C220CA94A
:1080C0006846FEF7D3F90026E946A04610E000BF57
:1080D00009EB46005FF00004B0F804A008EB840050
:1080E0005146001D01F07CFB641C1D2CF6D3761C50
:1080F0000098B042ECD8142D05D317B00420BDE889
:10810000F04FFFF7EDB82946584601F07FFB2946AE
:1081100008F1040001F07AFBF87B012828D016480A
:108120002946001D15E029461AE000220221B1EB84
:10813000101F01D2012600E000260F49083901F185
:108140001000041D294682B101F060FB36B12946BA
:10815000204617B0BDE8F04F01F058BB2946204635
:1081600017B0BDE8F04F01F03BBB01F039FBF5E77C
:1081700017B0BDE8F08F0000AC310020F0B585B03D
:1081800016460F4604001D4614D004AA194660691D
:10819000FFF7C6FA00280BD1A5F57F40FF380BD0BA
:1081A000049848B1007848B13088F42808D90720ED
:1081B00005B0F0BD0E20FBE70520F9E70820F7E742
:1081C00000200090019002900390A088ADF800007C
:1081D00001208DF80200CDE9026769462846AEDF2E
:1081E000E6E7000030B5144B0D4604000FCB85B018
:1081F0008DE80F001ED0EDB12868A06121466846C9
:1082000062DF002814D120788DF812000120ADF82B
:108210001000A21C04A9A8DF002809D12946204685
:1082200003F05BFC002803D12946204603F05EFFE3
:1082300005B030BD0E20FBE7FCC8020070B588B069
:108240000446002924D0002C22D008462188102979
:1082500020D0502924D057291AD10546A188406939
:1082600006AAFFF75DFA002812D1069E3078002892
:108270000ED018216846FEF712F901208DF8000093
:108280000195A088ADF808000396A969684688475B
:1082900008B070BD08B02146BDE8704003F0DAB9FF
:1082A00008B02146BDE8704003F0ACBA38B5164CB2
:1082B000144A21785054491CC8B21118207011F882
:1082C000011C0A2902D0A188884219D30D4A0FA1A6
:1082D0000020FEF7CBFA2078ADF800000A4863884A
:1082E0006A4608490C30FFF749FF082806D01128D4
:1082F000F1D0052802D008B1FEF7F2FF002020706F
:1083000038BD0000282C0020A02A002046696E619C
:108310006C20737472696E6720746F2073656E646D
:108320003A2025730A0000002DE9F0410446024678
:1083300010A10020FEF79AFA2046FEF7BBF8134E74
:10834000C7B24FF00005B088874204D20DE0605DEF
:10835000FFF7ACFF6D1CB0888542F8DB80B220448B
:10836000E4E7605DFFF7A2FF6D1CBD42F9DBBDE8ED
:10837000F081000053656E64696E672022257322C8
:10838000206F76657220424C450A0000A02A00202A
:10839000007800F0010070470149085C7047000058
:1083A000B4C802000649095C4FF0A040D0F810059F
:1083B000C84010F0010000D0012080F0010070479B
:1083C000B4C802002DE9FC410646C0074FF0000585
:1083D0000ED0104F00240122385D00950023114675
:1083E000019501F017FE641C042CF4D300F046F84C
:1083F000B0070DD5074E0024361D0022305D032343
:1084000000951146019501F005FE641C042CF4D37F
:10841000BDE8FC81B0C8020007490B5C4FF0A041E9
:10842000D1F804250120984020EA0203C1F808355C
:108430001040C1F80C057047B0C802000249085C42
:10844000012101F066BE0000B0C802000249085CCC
:10845000002101F05EBE0000B0C802000649095CC0
:108460004FF0A040D0F80405C84010F0010000D043
:10847000012080F001007047B0C8020010B5002450
:108480002046FFF7DBFF641C042CF9D310BD10B5A8
:1084900000242046FFF7DAFF641C042CF9D310BD3A
:1084A00010B50246064B4FF0FF3000215C5C944251
:1084B00001D1084610BD491C0429F7D310BD0000A6
:1084C000B4C8020070B50C4E0C004FF000053060CF
:1084D0000BD0012000F06AF808B1022004E000206F
:1084E00000F064F800B10B202070706810B9FEF73E
:1084F000EDFD0546284670BDDC2A002010B50020A1
:1085000000F040FA08B1062806D1012000F03AFA3E
:1085100008B1062800D1002010BD00002DE9F04769
:108520000D468146FFF7BCFF0446042836D2DFF82B
:1085300074801B481C4EA8F10C0725B3012D0ED0EA
:10854000022D2BD104EB440030444578002D25D07A
:10855000B968002922D02846BDE8F047084704EB57
:108560004401755C0E44717849B10E4A4FF40041E4
:10857000093A8068FEF724FF08B987F80390B178BC
:1085800008F80410E2E78068FEF75EFF04EB4401A0
:10859000314418F804008D78A842D7D0BDE8F087A0
:1085A000B8C80200D82A002028310020042801D2AF
:1085B000FFF7F8BE002070472B4910B54A88001F0E
:1085C00094B00E2845D2DFE800F0344444384444E7
:1085D0003144444407090B0D24A43AE028A438E0B0
:1085E0002CA436E001208DF8000006218DF8011042
:1085F0008DF8020005208DF803000A208DF8440054
:1086000011A829A10190D1E90001CDE90F010720AE
:10861000ADF8480012AA0FA96846FFF7A5F8024670
:1086200023A10020FEF722F925A412E003F0B8FBF5
:108630000FE01321104676DF06E0A2F57F40FF38F9
:1086400007D12448FFF74AFA082802D008B1FEF7FC
:1086500047FE224620A10020FEF708F914B020466C
:10866000BDE81040FFF760BEA02A00204275747478
:108670006F6E203120707265737365640A000000AC
:10868000427574746F6E2032207072657373656406
:108690000A000000427574746F6E2033207072659A
:1086A000737365640A00000052455345542100006D
:1086B0004572726F7220436F64653A2025640A0028
:1086C000427574746F6E20342070726573736564C4
:1086D0000A000000303000202573000070B5002330
:1086E000042810D20D4D00EB4004012A02D10129CB
:1086F0000CD00022094E00EB4000304461B101294A
:1087000006D0022906D00723184670BD0E30C2B22B
:108710002A55F9E74270F7E78270F5E72831002023
:10872000044A014600201279D20702D0084600F020
:108730004DB87047CC2A002070B506461E4800246C
:10874000C0E90161B00720D5002501221146284665
:10875000FFF7C4FF6D1C0446042D02D2002CF4D098
:1087600013E094B940F2666204211448FEF73EFD1E
:1087700004000AD1FEF728FD040006D10F48104A74
:108780000021001FFEF7E0FD0446F00712D0012093
:10879000FFF718FE74B909480A4A00210C38FEF7A1
:1087A000D3FD040006D10548074A01210838FEF729
:1087B000CBFD0446204670BDCC2A0020C4C8020070
:1087C000518A02002D920200C17102002DE9F05F72
:1087D0006A4C054600266078B34618B184F801B0AB
:1087E00000F00CFD664F4FF47A694FF4C87A4FF0F1
:1087F0000108182D62D2DFE805F0AC0C0C31404DB9
:1088000062676B746B74BE7D7D7D7D7DACAFB2B5F0
:10881000BEBE0020FFF722FE00284FF0000008D067
:10882000FFF70CFE022D02D14FF4E16008E048464C
:1088300006E0FFF70BFE022D01D1C82000E05046F4
:10884000410CC0034FF4FA72801841F10001257009
:1088500052000023FDF7C6FD01462AE00020FFF785
:10886000FDFD00284FF0000004D0FFF7E7FD4FF4B6
:108870004870E5E7FFF7EAFDDFE70020FFF7EEFDD0
:1088800000284FF0000002D0FFF7D8FDCFE7FFF738
:10889000DDFDD4E70020FFF7E1FD00284FF00000E8
:1088A00002D0FFF7CBFD01E0FFF7D0FD257041F6C8
:1088B0009A1100223868FEF783FD064646E0002044
:1088C000FFF7AAFD257008E0002051E025703DE08B
:1088D00084F801800120FFF79FFD002240F6CD4182
:1088E000E8E784F801800120FFF796FD00224FF4AD
:1088F0008041DFE77868FEF7A7FD0646D5F1110055
:1089000000D02EB10220FFF799FD84F802B01DE0DF
:10891000012816D980B2C8214843C117C90341EACA
:108920005041C0034FF4FA72801841F10001520027
:108930000023FDF757FD014600227868FEF740FD51
:1089400006460220FFF782FD84F802803046BDE82B
:10895000F09F00F053FCB9E700F050FCB4E700F0E2
:108960004DFC04E000F04AFC0020FFF76FFD012001
:10897000FFF76CFDAAE7FFF78AFDA7E7CC2A0020E6
:10898000B8C80200012103F066BF00002DE9F843DA
:108990000546861C00208DF8000090460F464FF0DB
:1089A00001096846FEF7F6FD1B4C20683860D4E9E3
:1089B0000001401AA16804F21C47081A0EE00121C8
:1089C000384600F033FF00F0C3FC0146384600F0A3
:1089D0002DFFD4E90001401AA168081A401C864204
:1089E000EDD8B8F1000F03D0052065F3891002E03F
:1089F000062065F39F50A2682168114004EB8101B5
:108A0000C8602068304420609DF80000FEF7E6FD55
:108A10004846BDE8F8830000E035002030B48268A5
:108A20000468531C8360A154D0E901128A4202D326
:108A300030BC01F060B930BC70470000034803C887
:108A4000814201D10120704700207047E0350020AD
:108A500000780221FFF762BD05494FF0FF32082878
:108A600041F8202002D3084480F8482070470000D5
:108A700030320020F0B54FF0FF3512B10023082648
:108A800001E008230C260C4C05E000BF54F82370CD
:108A90007F1C04D05B1CB342F8D32846F0BD2618D7
:108AA0005DB286F8305044F82310002AF5D1E11861
:108AB00081F84800F1E70000303200200249084404
:108AC00090F93000704700003032002070B5084C3B
:108AD000050009D010342168002907D008682060FB
:108AE000496828468847F6E70834F4E770BD000077
:108AF0001C320020054A012120B1012805D19170C6
:108B0000FFF7E4BF51700020FAE770471C320020E5
:108B10002DE9F05F26484168F1B3DFF898B00E68A0
:108B20008146DBF8004087688078E11B21F07F45B3
:108B3000ED1CB0B9DFF880804FF48030C8F84403F2
:108B4000C8F804031120FDF7D3FD1120FDF7DBFD6C
:108B50004FF0010AC8F800A02F2002F049F989F867
:108B600002A0B54200D23546124BE8193C3320F042
:108B70007F401860DBF800105A46091B21F07F4146
:108B8000001B20F07F40C91C81420FD9106818607B
:108B90002F2002F02DF900E004E0BDE8F05F112085
:108BA000FDF7BCBDBDE8F05F02F060BFBDE8F09F1F
:108BB000282B0020041501400010014073B58CB033
:108BC0000646002000900D9880B100246D46214695
:108BD0000DA800F010FE30B1009805EB4000848035
:108BE0000098401C0090641C142CF0D32C22694681
:108BF0003046FDF73BFC0EB070BD2DE9F041178803
:108C00000646B81D14460D46984202D90C20BDE810
:108C1000F0813188072206290AD34FF4486C4FF6B9
:108C2000FF73614501D9994202D17088062801D2AB
:108C30001046ECE7604501D99842F9D1994203D03A
:108C4000984201D08142F3D80520E85520881221AE
:108C5000401C80B2208029542088401C80B2208093
:108C60004119308803F0C6FC2188084480B2208076
:108C70004119708803F0BEFC218808442080002040
:108C8000C5E7FEF72DBB000038B54A7A0F4B62B13D
:108C900000220A725969002906D001228DF80020AD
:108CA000ADF802006846884738BD0A7A62B19B6811
:108CB0004C68024619462046FEF782FB0028F3D096
:108CC000BDE8384002F0F8BF5B68F1E7883100206A
:108CD000F0B587B0074600200490ADF8101005905D
:108CE000ADF812100190029001AA04A9384690DF55
:108CF000060022D002F022F8114C034601252088FC
:108D00003A4605EB00400F4901F011FCBDF8042084
:108D100012B9BDF8060038B12088BDF8063005EB61
:108D2000004009A101F003FCBDF808202AB1208809
:108D3000154905EB004001F0F3FB07B03046F0BDEC
:108D4000E82B002024CC0200546865207265717500
:108D500065737465642054582F5258207061636B9A
:108D60006574206C656E67746820697320746F6F1A
:108D7000206C6F6E672062792025752F2575206F16
:108D800063746574732E000070CC02002DE9F04707
:108D90000025DFF88C803CE06068002100EBC50610
:108DA000012032789146FDF74EFBD4E9062300EA14
:108DB000020701EA030C57EA0C0728D082438B43D1
:108DC0004846C4E9062302F0D5F832788246914637
:108DD00001200021FDF737FBD4E9042300EA020457
:108DE00001EA03074A4650460021FDF72CFB4440A8
:108DF0004F403C430BD17078012801D0012100E0A5
:108E00000021726881EA0A010AB1484690476D1C48
:108E1000EDB298F8000044468542BDD3BDE8F08726
:108E2000082B002010B50021024800F010FD80F34F
:108E3000100010BDFC3900200E4910B50A784C789E
:108E40000023A24212D0521CD2B20A70022A00D1D0
:108E50000B70084A0B780C3252F8232002608868A5
:108E6000104420F07F408860012010BD0360002086
:108E700010BD0000282B002030B50446006887B0E4
:108E80000D46806800281FD018216846FDF707FBB3
:108E90000195A0680590207910B1012810D107E054
:108EA00001208DF8000020690290E068039005E041
:108EB00002208DF80000E0680003029060690490D1
:108EC000206881686846884707B030BD826883881B
:108ED0001A4003689A5C0A708168491C8160704777
:108EE000C26883881A4003689954C168491CC160EC
:108EF000704770B50D460446B0F89810D0F894004D
:108F00000122FEF7F2FC00B1057004F13C0204F10D
:108F1000940104F1540072DF70BD10B50446C0B274
:108F2000FEF70EFB204610BD0B484A8843889A4244
:108F300011D10A88A2F52063773B0CD18988C91E1C
:108F40008AB28280054803211346008801EB004065
:108F500003A101F0ECBA7047A02A0020182C0020D1
:108F600044617461206C656E2069732073657420A0
:108F7000746F2030782558282564290010B50949D8
:108F8000094800F0E5FC08B1FEF7AAF9F721064808
:108F900000F0D2FC002803D0BDE81040FEF7A0B9D5
:108FA00010BD0000298F0200103000202DE9F04193
:108FB0008046024601200021FDF745FA1A4F05467A
:108FC0000E467868FEF740FA00280CD1174CD4E919
:108FD000062110462A4001EA06031A4305D0A84399
:108FE000B143C4E90601BDE8F081404601F0C2FF8B
:108FF00030B1D4E9040128433143C4E9040105E058
:10900000D4E90410A943B043C4E90410D4E906012B
:1090100028433143C4E90601A1687868BDE8F041FE
:109020000022FEF7CDB9000018C90200082B00206D
:109030000146034802888A4200D0002070470000A1
:10904000743100202DE9FC5F0E008346DDE90C47FA
:10905000C6F1000098469246814600D40846012594
:1090600003E000BF90FBFAF06D1C5045FADAA8450A
:1090700000D9454624B1002E01DB780700D5641ED7
:10908000B80702D5B8F1000F0AD0F80708D13CB1F3
:10909000A54205D220215846641EFFF7BFFCF6E723
:1090A000002E02DA4E462D2102E0780703D52B214F
:1090B0005846FFF7B3FC07F0030002280BD1B8F1C4
:1090C000000F08D13CB1A54205D230215846641E9C
:1090D000FFF7A4FCF6E7CDE9004743465246314688
:1090E000584603F08DFABDE8FC9F000070B50D46B0
:1090F000044600684FF4887101F040FE4FF490710F
:10910000206801F03BFE4FF49271206801F036FEBA
:109110004FF4A271206801F031FE20681249C0F8B6
:10912000041320686907000B40B2090E002806DA14
:1091300000F00F0000F1E02080F8141D03E000F1C2
:10914000E02080F8001420680121000B40B200F0FC
:109150001F0291404009800000F1E020C0F8801219
:10916000C0F8001170BD000010030200024600208C
:109170001268930702D0530702D47047500714D5E2
:1091800002F00300012802D002280CD105E0C2F34E
:1091900083100B68801C184404E00223086803EB6A
:1091A00092521044086001207047086800EB925307
:1091B000C2F38910401CEEE7F0B58488A5189442EC
:1091C00000D82246A41AC288D6189A4200D813465C
:1091D000D21A4B880788BB420CD34088834209D8F7
:1091E0008888A04206D3A84204D8C888904201D3F8
:1091F000B04201D90020F0BD0120F0BD0A4810B5F1
:10920000807860B1002401E0022C06D02046FFF7F0
:1092100015F9641C042CF7D310BD0324F6E7BDE850
:109220001040FFF72BB90000CC2A00200348017939
:10923000C90702D00078FFF7C9BA7047CC2A0020CE
:10924000F721018017214180002101714171FB212B
:1092500081711B21C17170472DE9F047394E0027FC
:1092600080463D46DFF8E090D6F804A057E003D0F2
:109270000446D0F81C8035E099F8002002EB42014A
:10928000521CD2B289F8002009EBC10199F80230D2
:10929000091D9A4201D189F8005048680A780446AD
:1092A000012A12D0022A02D0032A3BD108E002F0A0
:1092B0007FFE00B10127257434E00574C06900E029
:1092C00070680028F9D170602CE0207C50BB886861
:1092D0006060C868A0600869E0604869A061F078D3
:1092E00000B165606268B168184B501A20F07F4089
:1092F000984202D2A168084406E0881AA16820F0CA
:109300007F40814202D9081A206000E02560656034
:109310000120A56020742046E56102F02BFEB8F123
:109320000000A4D199F8001099F801008142A3D15E
:1093300017B97168514502D00120BDE8F0870020BF
:10934000FBE70000282B0020FC320020FFFF7F00FD
:109350002DE9FF410026234800F065FA2148001F4F
:10936000074600F060FA204C60680090A56800E0B5
:1093700000986946284004EB80000C30FFF7F6FEA9
:109380000028F5D101AA009901EA050304EB830343
:10939000491CDB6842F82030401C00910228F2D3BF
:1093A000019800F0030001280BD0022810D1019889
:1093B000032101EB90500099BDF80A6001EB900089
:1093C00005E00198BDF80A60C0F3831008440090DE
:1093D000384600F025FA08B10098606004B03046C5
:1093E000BDE8F081F8390020E03500208AB018226D
:1093F00063496846FDF73AF86248069062494FF4BF
:109400008070CDE9070109900723604A06A96846E4
:10941000FEF744F808B1FDF763FF4FF40041002068
:1094200001F0E4F808B1FDF75BFF00F057FFFDF72E
:109430009DFF08B1FDF754FF55490320FFF77CF964
:1094400008B1FDF74DFF69460020FFF73BF808B172
:10945000FDF746FF01F0E8F908B1FDF741FF01F023
:109460009DFB08B1FDF73CFF0024694601200094F4
:1094700001F0FAF908B1FDF733FF684601F09EFAF2
:1094800008B1FDF72DFF9DF8080042A120F00F0064
:10949000401C20F0F00010308DF808000B2202A8CC
:1094A0007CDF08B1FDF71CFF00941020ADF8000030
:1094B0003C200194ADF80200ADF804404FF4C870B0
:1094C000ADF8060068467ADF08B1FDF709FFFFF73F
:1094D00055FD3348019001A9324800F0FAFA08B16D
:1094E000FDF7FEFE3048009069463048FEF77AFEF0
:1094F00008B1FDF7F5FEFDF705FE1C216846FCF7F7
:10950000CEFF4FF42030CDE900404FF470200290A0
:1095100027480590032527488DF80C500690ADF894
:109520000E408DF810406846FEF710FC08B1FDF7BC
:10953000D7FE21A0FDF784FD244825A1008805EB76
:10954000004000F0E9FF174803210C30FEF7E3FA72
:1095500008B1FDF7C5FE0A4E002442F21078083E1D
:109560004FF47A472246641C24A10020FDF77EF9BF
:109570004546711C384688476D1EFAD1F2E7000057
:1095800098C80200102E0020102F0020E1C1020018
:10959000B98502004E6F726469635F554152540091
:1095A00051A802002430002019B50200AC2A002086
:1095B00039B60200838C02000D0A554152542073C3
:1095C0007461727465642E0D0A000000182C00206E
:1095D0004465627567206C6F6767696E6720666FA8
:1095E000722055415254206F766572205254542097
:1095F000737461727465642E0000000048656C6CC1
:109600006F20576F726C642025640A0070B5144691
:1096100082880E4605462088111D0144921C9942FD
:1096200001D8FE2A01D90C2070BD521C325420886A
:10963000FF21401C80B2208031542088401C80B221
:1096400020808119288802F0D5FF2188084480B243
:109650002080AA8842B1A96841B13044FCF706FFD6
:109660002088A98808442080002070BD072070BD94
:109670002DE9F047C7880446181D16468946B0FBF9
:10968000F7F1B0FBF7F207FB12009A193A44D21C2B
:10969000B2FBF7F2DDF820A001E02468491E0029A2
:1096A000FBD13D1A8846B54216D818E0BAF1000F32
:1096B00005D0211809EB08002A46091D04E02044C2
:1096C00009EB08012A46001DFCF7D0FE00202468A3
:1096D000761BA844B74201D9354600E03D46002E2E
:1096E000E4D1BDE8F087000030B5024659B100F082
:1096F000A9FF0021074C09E004EB810315685B8892
:10970000AB4202D11160002030BD491C8142F3D32D
:10971000052030BDE82B0020F8B50F46017814462F
:109720000546012901D1687830B12088821C9A420F
:109730002DD8012902D006E00720F8BD6978014440
:10974000891C994223D8181A801E86B2ADF8006091
:109750002188B81C084469467DDF0028EDD12878AF
:10976000022805D1BDF80010B14201D809210AE054
:109770000821012805D16878B04202D8ADF8000070
:1097800001E0ADF80060BDF80000FE2801D90C2012
:10979000F8BD2288401CB8542088401C80B220802C
:1097A00039542088401C2080BDF8001008442080D7
:1097B0000020F8BD10B50A8849888A4203D1FCF719
:1097C0006BFD012010BD002010BD70B50C46054694
:1097D000FCF745FD002802D061882868084470BD68
:1097E00001F01F0301229A40D243490900EB810096
:1097F000114600F021B84A0950F8220001F01F027A
:1098000001219140084000D00120704701F01F0362
:1098100001229A40490900EB8100114600F01CB872
:10982000002100F00FB8012100F016B808B56A4613
:10983000FCF787FD009808BD08B56A46FCF767FD90
:10984000009808BD08B56A46FCF761FD08BD08B57B
:109850006A46FCF743FD08BD08B56A46FCF74AFDB9
:10986000009808BD08B56A46FCF778FD009808BD69
:1098700038B5044600258DF800506846FDF78AFE8D
:1098800021686268086890420ED9401E086001781D
:10989000A38AE26801FB0325227A2168101AC0B26C
:1098A0000A79824200D208719DF80000FDF796FE09
:1098B000284638BD38B5054600208DF800000C4616
:1098C0006846FDF767FEE868A98A201AB0FBF1F147
:1098D0002A681068431C136001709DF80000FDF7B2
:1098E0007DFE38BD10B530B1017A42680368891A2F
:1098F000C9B21A6006E00E2010BD03681A68541C35
:109900001C601170491EC9B2F7D2006800210171B4
:10991000084610BDC20800F007030120895C98408A
:109920000840704710B5C20800F00703885C0124A6
:109930009C402043885410BD28B1A1F11702E12AB0
:1099400003D3072070470E20704701800020704726
:1099500010B560B10161F72120F8021B20F8021B4D
:10996000FB2100F8021BFFF76BFC002010BD0E204E
:1099700010BD0000F0B5858893B00C46002D39D19C
:10998000018800263E4F24293BD006DC102909D04F
:1099900011290CD0232958D14FE03A290BD0552951
:1099A00053D129E00146204601F08AFE4DE0A01D7A
:1099B000FFF746FC49E02246408934F8061F814201
:1099C00000D808466080172800D2172060801069F0
:1099D00070B1607960B1D7E90001CDE90301ADF85C
:1099E0000E506088ADF81000136903A9104698471F
:1099F0006671267113B0F0BD0146204601F0B0FE3D
:109A000023E0011D2C2206A8FCF730FDBDF818004C
:109A1000BDF81C2004EBC0014A732269AAB1D7E942
:109A20000423CDE90423ADF81200487B8DF814001F
:109A30002269204604A9904707E0017A207B8842EA
:109A400000D201462846FFF743F9A07A0028D1D07A
:109A5000E1882846A5DF012570B11128CAD001F0A0
:109A60006DF90246074808A1008813B005EB0040D5
:109A7000BDE8F04000F054BDA672E572BAE7000000
:109A8000E4C80200E82B002073645F626C655F67C6
:109A9000617474635F65786368616E67655F6D7438
:109AA000755F7265717565737428292072657475A8
:109AB000726E65642025732E0000000020B10278CC
:109AC000DE2A03D0082070470E2070474180002016
:109AD000704760B159B10278DE2A0AD00968416046
:109AE000DE2101704FF6FF714180002070470E208B
:109AF0007047082070477FB5054600294DD0002DDE
:109B00004BD008780C46DE2847D1A8886188884267
:109B100002D1204602F00EFE2888012825D0022816
:109B20003BD011283AD0512837D135F8040F61883D
:109B3000884232D1A978A81C02292ED1017A0429A1
:109B400003D0062901D0052927D100210091022246
:109B50008DF8002001914FF4C07202910391ADF88D
:109B60000420007A05280FD010E0297A2046012928
:109B700013D1A988428891420FD10121017204B00A
:109B8000BDE8704002F0D6BDADF8041028886946E3
:109B9000B0DF002801D0616888477FBDA888618850
:109BA0008842FAD14FF6FF7060807FBD00F180409F
:109BB0000068002800D00120704708B500F18040FF
:109BC000002101600068009008BD000070B50B4CDA
:109BD000207808B185250FE00020A060606020613A
:109BE000E060074801F0E6F8054601F031F808B9F1
:109BF00001F0CAF801202070284670BD1C320020F8
:109C0000F58A020038B500258DF800506846FDF74A
:109C1000C1FC074CE068401EE060E06810B901F04C
:109C2000D9F8A5709DF80000FDF7D8FC38BD0000FC
:109C30001C320020F0B505460478154889B0164658
:109C400040F82420124A0869121DA2F1080742F8C0
:109C50002400487F385520226846FCF707FC04940E
:109C60002878385C48B10EB10A4A00E00022694603
:109C7000281D01F043FB09B0F0BD0EB1064A00E01B
:109C80000022694605F10C0001F0EEF9F3E700004F
:109C9000F02A0020D1C4020079C3020030B4037856
:109CA000054CE35C1BB130BC001D01F05DBB30BC5A
:109CB0000C3001F043BA0000EC2A002030B40378E5
:109CC000054CE35C1BB130BC001D01F0CFBB30BCC8
:109CD0000C3001F0A9BA0000EC2A00200FB408B53E
:109CE0000399002904D004AA00926A4600F00FF8F4
:109CF00001B05DF814FB10B582680446002A05D057
:109D0000D4E90403216898470020A06010BD2DE924
:109D1000FC4791460C00804676D014F8011B39B1FF
:109D200025290ED04046FEF779FE20780028F4D190
:109D300098F80C00002867D04046BDE8FC47FFF7C4
:109D4000DABF0020012221782B291BD02D2902D037
:109D5000302908D102E040F0010001E040F00200AB
:109D6000641C002AEFD100252A290ED02178A1F108
:109D700030020A2A11D205EB850201EB4205641C70
:109D8000303DF1E740F00400EAE7D9F800100B1D80
:109D9000C9F800300968641C0D44217800232E297D
:109DA0000BD114F8011FA1F130020A2A05D203EBEE
:109DB000830201EB4203303BF3E76C290DD06829A5
:109DC0000BD0692921D00BDC252918D0582931D096
:109DD00063290ED0642915D117E014F8011FECE7B0
:109DE000702969D0732932D075291BD0782909D1FF
:109DF00020E0D9F80000011DC9F8001001784046A4
:109E0000FEF70CFE641C90E76CE0D9F800100A1D08
:109E1000C9F800200968CDE900500A224046FFF742
:109E200011F9EFE7D9F800100A1DC9F800200968F8
:109E30000A2206E0D9F800100A1DC9F800200968B6
:109E40001022CDE90050404602F0DAFBDAE7D9F8FB
:109E5000001000270A1DC9F800200E68C00705D1B0
:109E600012E04046761C7F1CFEF7D8FD31780029B1
:109E7000F7D104E0202140466D1EFEF7CFFDBD4224
:109E8000C0D9002DF6D1BDE74EB13046FCF712FB2C
:109E9000074604E0202140466D1EFEF7BFFDBD428F
:109EA00006D9002DF6D103E04046761CFEF7B6FD3C
:109EB00031780029F8D1A5E7D9F80000011DC9F8CB
:109EC0000010056830214046FEF7A8FD7821404685
:109ED000FEF7A4FD08200021CDE900010346102271
:109EE0002946B0E7BDE8FC872DE9F04128B10168BB
:109EF00019B1C969BDE8F04108470D4D0D4800246E
:109F0000461B14270DE000BF04EB840005EB800026
:109F1000016829B1C969884710B10120BDE8F08105
:109F2000641CB6FBF7F0A042EED80020F6E7000074
:109F30000000000000000000044801214174007A84
:109F400008B100207047012070470000C034002095
:109F5000012801D0032808D10449002201284A74AD
:109F600000D00020087401F031BD7047C0340020DB
:109F700070B50246022801D0032A45D1234C207A2D
:109F8000002841D0012833D0022831D120480023B5
:109F9000022A006802D0032A2AD11BE0E36001797B
:109FA00011B1012924D10DE0D0E90565711B4FF4F1
:109FB0008056B14200D33146294481614569A942A6
:109FC0000ED015E00169491C0161426991420FD12F
:109FD000237213E0E168491CE160082908D9E360B5
:109FE0002372022A0AD00D21FEF746FF01F0E4FC9D
:109FF000607C28B1BDE8704000F030BE0021F3E77E
:10A00000BDE8704001F0E2BC70BD0000C03400202B
:10A010006C2B002070B541EA4201DDE904564FF097
:10A02000A04441EA830141EA052104EB800041EAB2
:10A030000641C0F8001770BD70B541EA4201DDE984
:10A0400004564FF0A04441EA830141EA052104EBA4
:10A05000800041EA0641C0F8001770BD70B541EAC2
:10A060004201DDE904564FF0A04441EA830141EA90
:10A07000052104EB800041EA0641C0F8001770BDDD
:10A0800070B541EA4201DDE904564FF0A04441EACF
:10A09000830141EA052104EB800041EA0641C0F852
:10A0A000001770BD1CB500220B46009211460192AC
:10A0B000FFF7D4FF1CBD1CB500220B4600921146D1
:10A0C0000192FFF7DDFF1CBD1CB5002100910B467E
:10A0D000012201911146FFF7C1FF1CBD1CB50021F3
:10A0E00000910B46012201911146FFF7C9FF1CBDEB
:10A0F0004FF0A04202EB8000D0F8002722F440325B
:10A10000C0F80027D0F8002742EA0141C0F8001744
:10A11000704701224FF0A043824011B1C3F80825D7
:10A120007047C3F80C25704718B5084B6C460144BE
:10A130001B68009306E000BF54F82030D3F81035B8
:10A14000401C08C28142F7D818BD00000CC90200AB
:10A15000034908B50844002101600068009008BD6B
:10A160000060004002494058012800D0002070479C
:10A170000060004030B5124B01460020D3F8104477
:10A18000224609E0157A854205D1401C0A28F7DBF2
:10A190004FF0FF3030BD5268002AF3D1421CF9D095
:10A1A0000872D3F810242AB152684A60D3F81024F8
:10A1B000516030BD0022C3F810144A6030BD000069
:10A1C000E03500207047FCF703BB704708B5034A31
:10A1D00000924023024A00F005F808BDC9BC020005
:10A1E000E0340020F0B595B01C4615460F460846F1
:10A1F0001A9E00F0F7FA182109A8FCF750F90E96FC
:10A20000CDE909540023082203A9384600F0FFFADB
:10A2100005980690BDF81000ADF81C00BDF81200BE
:10A22000ADF81E0000208DF821000398082600F0EC
:10A230000300012802D0022818D032E003983346E8
:10A24000850AC0F3C2008DF8200003980FA9C0F35F
:10A250008314A200384600F0DAFA09A8009006AB91
:10A2600022460FA9284600F019FA1AE00398840D37
:10A27000C0F3C2008DF82000082C01D2254600E072
:10A28000082533462A460FA9384600F0C0FA2E4466
:10A29000641B09AB06AA29460FA800F051F9002C4F
:10A2A000EAD1384600F0A4FA15B0F0BD0A4A0129F7
:10A2B00002EBC00007D0022907D0032907D00429E8
:10A2C00007D00020704702207047042070470079B3
:10A2D0007047407970470000B4D3020010B5FFF713
:10A2E00072FF04210348FFF745FF0249012048722D
:10A2F00010BD0000842B00202DE9F04F8DB0FEF73B
:10A300009DFB18B100200DB0BDE8F08F7A4C4FF0E6
:10A31000000BC4F818B4BFF34F8F60680290A568B3
:10A32000D846284004EB800008E02168029881426A
:10A3300001D86160E6E7284004EB80000C3002A9F8
:10A34000FEF714FF0028F0D105AA029901EA0503DF
:10A3500004EB8303491CDB6842F82030401C029167
:10A360000228F2D3059800F00300022802D0012849
:10A370004ED0A9E005985022810D8946B2EB905F3E
:10A3800000D850210E4666F39F50059008315B4877
:10A3900000F0DFF9070079D000F024FA43460822E4
:10A3A00005A9384600F039FA029908F1080A29404F
:10A3B000681A8000001D864223D94F4D0C3530B1FC
:10A3C000C2B204EB8101301A90460C3104E02946F8
:10A3D000F2B2002590462846C6B25346384600F0F1
:10A3E0001CFA0AEB08032DB1324629464FEA070052
:10A3F00000F013FA029909F1030001EB90000290BA
:10A400003BE004EB81015346324638460C31EFE71E
:10A410000598C0F38310062800D30620059960F341
:10A420008911C1F38310801C05918100334800F02D
:10A4300090F9070048D000F0D5F94346082205A955
:10A44000384600F0EAF908F1080800260FE0029803
:10A45000434600EA0501401C04EB810102900422FE
:10A4600038460C3100F0D9F908F10408761C05983B
:10A47000C0F38310B042EAD847B1D4F81054D4F8EE
:10A48000180468B1384600F0B3F92FE01CE0687A90
:10A49000012804D12A6828463946126890476D6819
:10A4A000002DF4D1384600F0A3F98DF800B06846CD
:10A4B000FDF770F8D4F8180408B9029860609DF8A8
:10A4C0000000FDF78BF811E0D4F8104404E0216897
:10A4D0002046896888476468002CF8D10848022122
:10A4E000008801EB004007A100F016F8FEF7A6FA7D
:10A4F00080F0010007E70000E035002034D40200BE
:10A50000182C00204261636B656E647320666C7565
:10A51000736865640000000000231A4601F0A4BCC3
:10A5200008B5012300926A4601F09EFC08BD1CB5E7
:10A53000CDE9002302236A4601F096FC1CBD000011
:10A540002DE9F0470E4680461C46924608293ED823
:10A5500094F80C90002020731946104601F0D4F9AD
:10A560000025B54206D218F805201AA12046FFF7AB
:10A57000B5FB03E019A12046FFF7B0FB6D1C082DC9
:10A58000EFD317A12046FFF7A9FB0025B54210D253
:10A5900018F80570FBF766FF0068C05D10F03E0F0D
:10A5A00001D03A4600E02E220EA12046FFF796FB8E
:10A5B00003E00DA12046FFF791FB6D1C082DE5D3AC
:10A5C00001222146504601F081F984F80C90BDE843
:10A5D000F087000020253032780000002020200085
:10A5E0007C0000002563000020000000104810B52A
:10A5F000FF218160002101604160C0F81814C0F89B
:10A60000141480F820140B4800F0F0F800280DD145
:10A6100009480A490A4B401AC108002003E000BF5C
:10A6200023F82000401C8842FAD3002010BD00000F
:10A63000E035002034D4020034D40200B4D3020048
:10A64000E82B002002480349401AC0087047000068
:10A6500034D40200B4D3020013B56846FFF744F8BF
:10A6600008B100201CBD0248009950F831001CBD03
:10A67000B4D3020070B508480125D0F8104480F822
:10A68000205405E06572216820464968884764685F
:10A69000002CF7D170BD0000E03500202DE9FF4708
:10A6A00081460C9D00200C462F7B28739846164649
:10A6B0002946184601F028F9072E42D2DFE806F0B5
:10A6C00004090F161F2A360049462846FFF706FBE5
:10A6D00037E0494628462268FFF700FB31E0D4E91D
:10A6E000002349462846FFF7F9FA2AE0A0680090BF
:10A6F000D4E9002349462846FFF7F0FA21E0D4E9DF
:10A700000201CDE90001D4E9002349462846FFF7BC
:10A71000E5FA16E004F1080007C88DE80700D4E95F
:10A72000002349462846FFF7D9FA0AE004F1080059
:10A730000FC88DE80F00D4E9002349462846FFF7EB
:10A74000CDFA00222946404601F0C0F82F73BDE83B
:10A75000FF872DE9F041858A80462D1F4819C01CCE
:10A76000B0FBF5F0C6B24046FFF782F8041E19D0E0
:10A770000020207101206071E58000272546761EAB
:10A78000C4F800800BE04046FFF772F860B16179D1
:10A79000491C6171286005467F1CC0F80080B742E3
:10A7A000F1D32046BDE8F081204600F002F80020F9
:10A7B000F8E72DE9F041457901466B1E002201E0E2
:10A7C0000968521C9A42FBD30F680146002605E037
:10A7D00038460C68FFF76EF82146761CAE42F7D378
:10A7E000BDE8F0810121001DFFF720B8FFF77AB81E
:10A7F00010B504460121001DFFF734F810F0FF0FDB
:10A8000004D12046BDE81040FFF7D3BF10BD38B5D6
:10A8100001240094FEF72CFF38BD38B500240094C5
:10A82000FEF726FF38BD0000064910B5002048702D
:10A83000091D0860BFF35F8F0349044800F03AFA2E
:10A84000002010BD742B002080C90200D4340020E9
:10A85000FCF746BD20B1034909680160002070473C
:10A860000E20704770CB02002DE9FE4306460D46D0
:10A870000846FFF7EFFF00287ED18046CDF8008024
:10A88000CDF80480012406208DF80060ADF80400A6
:10A89000CDF808808DF80240694620202A6869DFDB
:10A8A0003F4F40B100F04AFA024638883D4904EB78
:10A8B0000040FFF735FECDF800808DF801408DF89F
:10A8C0000280CDF80480CDF808808DF803806946B9
:10A8D00040202A6869DF40B100F030FA024638882B
:10A8E000314904EB0040FFF71BFECDF800808DF8E6
:10A8F0000060F720ADF80200CDF80480CDF80880A4
:10A90000694623202A6869DF40B100F017FA024641
:10A910003888264904EB0040FFF702FECDF800809E
:10A92000CDF80480CDF808808DF800404646694691
:10A9300001202A6869DF40B100F000FA0246388839
:10A940001B4904EB0040FFF7EBFD4FF4B0600090B3
:10A95000019602966946A1202A6869DF40B100F09D
:10A96000EDF902463888134904EB0040FFF7D8FDA3
:10A9700000960196029600E010E08DF800606946AE
:10A98000A0202A6869DF40B100F0D8F90246388873
:10A99000094904EB0040FFF7C3FD0020BDE8FE833A
:10A9A000202C002010D2020058D20200A4D20200B3
:10A9B00070D10200BCD102001CD102002DE9F0418F
:10A9C0000446D0F8008060DF2168194D07464145F4
:10A9D0001CD92888022606EB004016A1FFF79CFD33
:10A9E0002888424606EB00401EA12368FFF79FFD22
:10A9F000F006D0F80C012168800200F10050421AE4
:10AA0000288825A106EB0040FFF78AFD012467B1E5
:10AA1000384600F093F9024628882AA104EB00404A
:10AA2000FFF77EFD3846BDE8F0812E480470F9E757
:10AA3000202C0020496E73756666696369656E74C3
:10AA40002052414D20616C6C6F63617465642066B7
:10AA50006F722074686520536F667444657669630D
:10AA6000652E00004368616E67652074686520523A
:10AA7000414D207374617274206C6F636174696FEF
:10AA80006E2066726F6D203078257820746F2030CC
:10AA90007825782E000000004D6178696D756D2075
:10AAA00052414D2073697A6520666F722061707023
:10AAB0006C69636174696F6E2069732030782578E2
:10AAC0002E00000073645F626C655F656E61626C8E
:10AAD0006528292072657475726E65642025732E51
:10AAE00000000000E32B002030B51548ADF5017DD6
:10AAF0000078002821D04FF4FA7500BFADF800525D
:10AB000080A9684661DF38B1052816D00DF5017DB2
:10AB1000BDE83040FCF7E4BB6C460A497DA800F074
:10AB2000C9F806E0D0E90021204690477DA800F052
:10AB3000D8F87F980028E1D0F4E70DF5017D30BD0D
:10AB4000E32B002074CB0200F8B5134C2078C0B181
:10AB50000120A07001F082F8112814D0022001F029
:10AB600095F800258DF800506846FCF713FD11DFBD
:10AB7000064625709DF80000FCF730FD2EB13046EA
:10AB8000F8BD0820F8BD0020F8BDA57001F028F937
:10AB9000032001F07BF8F6E7E02B00207CB5204C89
:10ABA000207808B108207CBD0120A070002001F0B1
:10ABB00055F8112819D0002001F068F8194800262E
:10ABC000006801908DF800606846FCF7E3FC1649C8
:10ABD00001A810DF05000AD0002020709DF80000B9
:10ABE000FCF7FCFC2DB128467CBD00207CBD01207B
:10ABF000F3E7A67066700721162000F0E6FF08B1A3
:10AC0000FCF76EFB0721152000F0DFFF08B1FCF711
:10AC100067FB01F001F9012001F038F8E5E70000D9
:10AC2000E02B002008CB0200657202000EB5074938
:10AC3000684600F03FF805E0D0E900108847684614
:10AC400000F04FF802980028F6D10EBD24CB020088
:10AC50000148007870470000E02B0020054881780B
:10AC600019B1007818B1FFF76FBF08207047FFF7E0
:10AC700095BF0000E02B00201FB568464BDF30B1C8
:10AC8000052814D004B0BDE81040FCF729BB0849E2
:10AC900001A800F00FF806E0D0E9002100989047E5
:10ACA00001A800F01EF803980028E6D0F4E71FBDC5
:10ACB00090CB0200016009684160AFF3008010B5DD
:10ACC000D0E900215368994201D1002104E0D1E983
:10ACD0000034A34202D01946816010BD08314160A2
:10ACE000F0E7816800290BD0026892680A4482600C
:10ACF00041684B689A4203D108314160FFF7DFBFDA
:10AD0000704700000C4A10B502F594730EE0991AD2
:10AD1000C91001EBD171491002EBC1010C688442EA
:10AD200001D90B4602E005D201F108029A42EED3A6
:10AD3000002010BD486810BDA0C9020000B5FFF793
:10AD4000E1FF002800D1014800BD00008CC90200CD
:10AD50004058002800D00120704708B5002242501A
:10AD60004058009008BDD0F80403084000D00120EE
:10AD700070474058002800D00120704708B50022D5
:10AD800042504058009008BD08480068012110F06A
:10AD9000010F08D14FF0E020E02280F80024C0F835
:10ADA0008012C0F8001102480160704700E100E025
:10ADB000180500400649024600200B790BB185209A
:10ADC00070470A6001220A7100224A717047000030
:10ADD000F82A002004490120086004480168C1F3F2
:10ADE00000410029FAD170470C00004018040040CF
:10ADF000002802D0014980010847704721C902009C
:10AE00002DE9F0418846054600F048FD234E002814
:10AE100028461AD0FDF752FE304490F848008009C9
:10AE2000032802D001280ED007E04FF0A040D0F850
:10AE30001005E84010F0010F05D003212846BDE8B9
:10AE4000F041FFF755B90221F8E700F033FD002883
:10AE500022D02846FDF732FE04464FF4807000EB06
:10AE600084000F4F81B207EB8400D0F8102542F028
:10AE70000102C0F810250846FFF76AF9B8F1000F83
:10AE80000AD02846FDF71AFE56F82000002803D005
:10AE90000120A040C7F80403BDE8F0813032002053
:10AEA000006000402DE9FC41DFF8BC80044608EB5F
:10AEB0000400002790F930001346C0170E46401CCE
:10AEC00001D008274CE0B0781946C0F34002204674
:10AED000FDF7D0FD0546401C41D0B078410719D49C
:10AEE000C0070AD04FF0A04000EB8401D1F8000762
:10AEF00020F00200C1F8000707E000217378204627
:10AF000000910A460191FFF797F8174920465431FE
:10AF1000FEF708FDB078800718D51448317800EBAB
:10AF20008500D0F81025124B1A40C0F810254FF4B8
:10AF3000F8524FF4403302EA042203EA01410A4383
:10AF4000D0F810150A43C0F8102509E008EB0500F9
:10AF5000327810F8481F41EA8211017000E004279E
:10AF60003846BDE8FC81000030320020006000401F
:10AF7000FFE0FCFF4FF0A041D1F81015C14011F0E7
:10AF8000010000D00120704770B5184D95F85800A9
:10AF900008B1082070BD0020411E2A18401CC0B214
:10AFA00082F830102028F8D300242046FDF754FD05
:10AFB000641CE4B20C2CF8D300240D49E0206C652D
:10AFC00081F8000401264020891FC1F88002C1F8E1
:10AFD00000014FF4BE70FFF7BBF80649F007C1F857
:10AFE000040385F85860204670BD00003032002010
:10AFF00006E000E000600040034890F85800002898
:10B0000000D0012070470000303200200121B1EB58
:10B01000507F01D1012070470020704738B50D46A0
:10B0200000F0BEFC040014D000208DF8000068463B
:10B03000FCF7B0FA207928B19DF80000FCF7CEFAB1
:10B04000112038BD0120256020719DF80000FCF71B
:10B05000C5FA002038BD00000149024801F0A4B93A
:10B060008C320020002000402DE9F0410546007997
:10B0700016460F4600EB40012D4A01EBC00102EBE2
:10B08000810494F82A1011B10820BDE8F081294903
:10B0900051F820102868FFF7C1FF08B11120F4E72C
:10B0A00039462846FCF7B4FA6660386920603000FB
:10B0B0004FF001062FD03F7F4FF48E712868FFF7C5
:10B0C0004CFE4FF4A2712868FFF747FE28681A4922
:10B0D000C0F8041328684FEA4711000B40B200285B
:10B0E00006DA00F00F0000F1E02080F8141D03E004
:10B0F00000F1E02080F800142868000B40B200F056
:10B100001F0206FA02F14009800000F1E020C0F8B9
:10B110008012C0F8001128680421C0F80015002032
:10B12000A061E06184F8290044F8140FA675ACE72B
:10B130008C32002010C90200800002002DE9F05F6F
:10B14000054600794FF4017600EB400303EBC000A5
:10B15000344B03EB80040020636813B12B68C3F801
:10B160000863A3694FF000096BB1E06938B160680A
:10B1700010B12868C0F804631120BDE8F09FE261B7
:10B180000120216105E0C4F82490A261E160C4F8C7
:10B190001C9094F82910014302D1284600F005FDC7
:10B1A00060680028286803D0C0F804630020E4E742
:10B1B0004FF4A2763146FFF7D0FDB2464FF4927BB2
:10B1C00059462868FFF7C4FD06464FF48471286885
:10B1D000FFF7BEFD804651462868FFF7B9FD0746D8
:10B1E00048EA07003043EBD056EA070007D1214672
:10B1F000286800F059FCA169606A8142E0D8C4F86F
:10B2000018900EB10320B8E70FB10F20B5E794F8FE
:10B21000291001200029296801D00860C6E748608C
:10B22000C4E700008C3200202DE9F0470546007984
:10B230000B4600EB400101EBC000234901EB800409
:10B24000284600F043F810B11120BDE8F0874FF018
:10B250000008C4F82080A360626184F828804FF45D
:10B260008E76474631462868FFF777FD28684FF00D
:10B270000109C0F808902146286800F027FF60689F
:10B2800000BBD5F800A00EE094F8280008B10F2705
:10B2900016E031465046FFF75BFD0028F4D021460A
:10B2A000504600F013FF216A60698142F1D33146B4
:10B2B0002868FFF74DFD0028F9D02868C0F80C90E9
:10B2C000C4F814803846C0E78C320020007900EBC7
:10B2D000400101EBC000044901EB800040690028F7
:10B2E00000D00120704700008C3200200149024844
:10B2F00001F006B9B8320020002000402DE9F041ED
:10B300000546164600790F46154A00EBC00102EBD0
:10B31000810494F8201011B10820BDE8F081114992
:10B3200051F820102868FFF779FE08B11120F4E7E2
:10B3300039462846FCF7B0F96660386920601EB1CE
:10B34000397F2846FDF7D2FE28680821C0F800158D
:10B350000020A061E0610121606184F82010DCE739
:10B36000B832002014C902002DE9F05F04460079CC
:10B370000E4600EBC001DFF8F0A017460AEB81058E
:10B380003046FFF743FEB0B168684FF000084FF455
:10B39000047910B12168C1F80893A8694FF0000B37
:10B3A00080B1E86948B1686810B12068C0F80493BA
:10B3B0001120BDE8F09F1020FBE7EF614FF001087E
:10B3C0002E6102E0EE60C5E9067B00254FF488712E
:10B3D0002068FFF7D3FC4FF4A2712068FFF7CEFC82
:10B3E0002068C0F83465C0F838752068B8F1000FDF
:10B3F00012D0D0F8001241F02001C0F800122079DC
:10B40000D04600EBC0010AEB8100406838B12068EB
:10B41000C0F804932846CCE701210160EFE74FF420
:10B42000887A4FF4A27951462068FFF7A2FC0746BC
:10B4300049462068FFF79DFC06464FF4927120684C
:10B44000FFF797FC014647EA06000843EBD0227954
:10B4500002EBC20308EB8302C2F818B001B1032566
:10B46000002ED7D00F25D5E7B83200202DE9F047C0
:10B4700004460E460079204900EBC00001EB800530
:10B4800017463046FFF7C2FD30B1204600F036F8CF
:10B4900020B11120BDE8F0871020FBE76F61AE609E
:10B4A0004FF49076002731462068FFF767FC4FF491
:10B4B000AC7841462068FFF761FC2068AA6869699A
:10B4C000C0F84425C0F848152068012181606868EB
:10B4D00078B9B14649462068FFF74BFC064641461D
:10B4E0002068FFF746FC0643F4D000B10F27002088
:10B4F00068613846CEE70000B8320020007905497F
:10B5000000EBC00001EB80004069002800D0012062
:10B5100070470000B83200202DE9F041044602696E
:10B5200024A10020FBF7A2F9207800283FD10026B3
:10B53000264F4FF0010812E02069805DFCF700F80B
:10B5400005000BD0112DF7D039882A4608EB0140B1
:10B550001FA1FEF7E5FF2846FBF7C2FE761CA08A76
:10B56000B042E9D8A18A2069084410F8010C0D28DE
:10B5700004D10A20FBF7E4FF1128FAD01FA12069AB
:10B58000FAF79FFF78B11FA12069FAF79AFF60B11F
:10B590001EA12069FAF795FF002808D10320BDE815
:10B5A000F041FCF739BF0120F9E70220F7E7BDE8D9
:10B5B000F0810000424C4520446174612052656373
:10B5C00065697665643A2025730A0000182C00200E
:10B5D0004661696C656420726563656976696E674A
:10B5E000204E5553206D6573736167652E2045723B
:10B5F000726F7220307825782E2000004C4544323E
:10B60000000000004C454433000000004C45443429
:10B610000000000010B550B103280CD10220FDF746
:10B620007FF8002807D0BDE81040FBF759BEBDE801
:10B63000104000F0B5BB10BD0078002807D10448C9
:10B640003B21408876DF002801D0FBF749BE7047D8
:10B65000A02A0020F0B58BB0002601960D460446C6
:10B660008988406901AAFCF75BF80AA8CDE908605F
:10B670000227ADF82070ADF82260218AA88808AAB8
:10B68000ADDF002819D1A069002816D00998FCF771
:10B690007FFE002811D0019E0EB1012030701821CC
:10B6A00002A8FAF7FCFE8DF808700394A888ADF89C
:10B6B00010000596A16902A888470BB0F0BD0000F4
:10B6C00070B58D88027900EBC5042273C97BA41D77
:10B6D000012902D0022904D101E0008800E040885D
:10B6E00020802188608881420FD92846A5DF012665
:10B6F000A0B1112814D0FFF721FB02460A480BA184
:10B70000008806EB0040FEF70BFFA179E07981424B
:10B7100008D92846BDE87040FDF7DABA6671F4E74B
:10B720002671F2E770BD0000E82B002073645F62B1
:10B730006C655F67617474635F65786368616E6789
:10B74000655F6D74755F7265717565737428292006
:10B7500072657475726E65642025732E000000009A
:10B760007CB506468D88C88806EBC504A41D17283D
:10B7700000D217202188814200D80846608000202E
:10B78000207121882846B5DF50B1FFF7D7FA02466D
:10B790000E480121008801EB00400DA1FEF7C0FE1C
:10B7A0006079002810D1306900280DD01449D1E902
:10B7B0000201CDE90001ADF802506088ADF8040047
:10B7C00032696946304690477CBD0000E82B002076
:10B7D00073645F626C655F67617474735F657863DF
:10B7E00068616E67655F6D74755F7265706C7928EE
:10B7F000292072657475726E65642025732E0000B1
:10B80000E4C80200F0B587B00C4605468E1D898855
:10B81000406906AAFBF784FF18216846FAF73FFE45
:10B820000195A088069AADF80800039231882B890B
:10B83000002704F11200994202D17389022B0DD026
:10B84000AA8991421ED1A96900291BD08DF80070E8
:10B8500004907089ADF81400A96911E0002A11D094
:10B86000FCF796FD20B1069901200870022002E045
:10B870000698077003208DF80000A969002901D0FF
:10B880006846884707B0F0BD0068012803D0022849
:10B8900001D000207047012070470000044908448F
:10B8A00090F93000082801DB012070470020704724
:10B8B000303200200449084490F93000082801D2B1
:10B8C00001207047002070473032002010B50C4630
:10B8D000017A052908D0407A38B1084808A10268E1
:10B8E0002046FEF7FBF900E01AB106A12046FEF75C
:10B8F000F5F92046BDE81040FEF7FDB9BC2B00204D
:10B90000257300000D0A000038B5C3880D460446B3
:10B9100033B114A0009015A216A12846FEF7DEF957
:10B92000217A05291CD0607A48B1A088FEF7BEFCB8
:10B93000164951F8202016A12846FEF7CFF9A08815
:10B940000021FEF789FE03461049207A143951F888
:10B95000202001B02846BDE830400EA1FEF7BEB958
:10B9600038BD00001B5B306D000000001B5B313BED
:10B9700033316D0025734C6F67732064726F707084
:10B980006564202825642925730D0A00BC2B00203E
:10B99000257300003C25733E2025733A20000000EB
:10B9A0000349884201D103487047002070470000D6
:10B9B00000200040002B0020034802490068FDF7EA
:10B9C000F9BE0000702B002058C902002DE9F0419B
:10B9D000234C0025234E207A012730B92248311DFF
:10B9E0000068FDF7F2FE306038B102202072316845
:10B9F000087928B101281ED116E06560BDE8F08104
:10BA0000D1E90503C01A4FF48052904200D310468A
:10BA1000B7EB900F01D2820800E001220869C968E3
:10BA20001844194429DF03E0D1E90301084428DF61
:10BA300058B1112812D003213068FDF71DFA257284
:10BA40006560BDE8F041FFF7B7BF207C0028D5D185
:10BA5000BDE8F04100210220FEF78ABA2772CDE747
:10BA6000C03400206C2B002058C9020070B501269C
:10BA700070044FF0E0210025C1F88001084C40100F
:10BA8000C4F84803C4F8080366602F20FFF7B0F934
:10BA9000A660044C2F20A560FFF7AAF9A57070BD21
:10BAA00000100140282B002070B5054688690C461F
:10BAB00000284FF4847128460AD0FFF74EF9D5F8D4
:10BAC0001805626AE1688854606A401C606270BD53
:10BAD000FFF743F9D5F8180570BD30B58FB00546AE
